:0400000007EF00F016
:0A0008004D827AED0DF0C8EF10F004
:10080000002057415254484F4720524F424F5449BD
:10081000435300575254554E4E454C2050524F4E64
:10082000544F0020575254554E4E454C20342E30D4
:1008300000436F6E6669677572616E646F00204574
:10084000455343202D2055535000504152412043E1
:1008500048555445002050524F544F5449504F0072
:100860004143454C3A202D0056454C3A20002E007D
:010870000087
:10087200000E0001DA6F000EDB6F000EDC6F000E5F
:10088200DD6F000E0001DE6F000EDF6F000EE06F05
:10089200000EE16F000E0001BE6F000EBF6F000E72
:1008A200C06F000EC16F000E0001C26F000EC36F59
:1008B200000EC46F000EC56F000E0001C66F000E61
:1008C200C76F000EC86F000EC96F000E0001CA6F1D
:1008D200000ECB6F000ECC6F000ECD6F000E00012C
:1008E200CE6F000ECF6F000ED06F000ED16F000ED4
:1008F2000001D26F000ED36F000ED46F000ED56FC1
:10090200000E0001D66F000ED76F000ED86F000EDA
:10091200D96F000E0001B26F000EB36F000EB46FFC
:10092200000EB56F000E0001B66F000EB76F000E1D
:10093200B86F000EB96F000E0001BA6F000EBB6FE8
:10094200000EBC6F000EBD6F29C01CF02AC01DF046
:100952002BC01EF02CC01FF0000E206EE10E216E87
:10096200F50E226E050E236EA3EC0EF01CC0DAF01B
:100972001DC0DBF01EC0DCF01FC0DDF00001DA514B
:100982000001DB110001DC110001DD11D8B405D03A
:100992000001DA51300FCFEC0DF0000E176EE10EB0
:1009A200186EF50E196E050E1A6E29C013F02AC0C4
:1009B20014F02BC015F02CC016F011EC10F013C07F
:1009C2001CF014C01DF015C01EF016C01FF0800EE2
:1009D200206E960E216E980E226E000E236EA3ECF0
:1009E2000EF01CC0DEF01DC0DFF01EC0E0F01FC024
:1009F200E1F00001DE510001DF110001E011000110
:100A0200E111D8B405D00001DE51300FCFEC0DF06A
:100A1200800E176E960E186E980E196E000E1A6ED4
:100A220029C013F02AC014F02BC015F02CC016F008
:100A320011EC10F013C01CF014C01DF015C01EF014
:100A420016C01FF0400E206E420E216E0F0E226E57
:100A5200000E236EA3EC0EF01CC0BEF01DC0BFF052
:100A62001EC0C0F01FC0C1F00001BE51300FCFEC5C
:100A72000DF02E0ECFEC0DF0400E176E420E186EDA
:100A82000F0E196E000E1A6E29C013F02AC014F050
:100A92002BC015F02CC016F011EC10F013C01CF096
:100AA20014C01DF015C01EF016C01FF0A00E206E5F
:100AB200860E216E010E226E000E236EA3EC0EF046
:100AC2001CC0C2F01DC0C3F01EC0C4F01FC0C5F0E0
:100AD2000001C251300FCFEC0DF0A00E176E860E42
:100AE200186E010E196E000E1A6E29C013F02AC07C
:100AF20014F02BC015F02CC016F011EC10F013C03E
:100B02001CF014C01DF015C01EF016C01FF0100E10
:100B1200206E270E216E000E226E000E236EA3ECB5
:100B22000EF01CC0C6F01DC0C7F01EC0C8F01FC02A
:100B3200C9F00001C651300FCFEC0DF0100E176E48
:100B4200270E186E000E196E000E1A6E29C013F0D1
:100B52002AC014F02BC015F02CC016F011EC10F0C6
:100B620013C01CF014C01DF015C01EF016C01FF0FB
:100B7200E80E206E030E216E000E226E000E236E12
:100B8200A3EC0EF01CC0CAF01DC0CBF01EC0CCF00E
:100B92001FC0CDF00001CA51300FCFEC0DF0E80EAE
:100BA200176E030E186E000E196E000E1A6E29C013
:100BB20013F02AC014F02BC015F02CC016F011EC63
:100BC20010F013C01CF014C01DF015C01EF016C0AA
:100BD2001FF0640E206E000E216E000E226E000EBB
:100BE200236EA3EC0EF01CC0CEF01DC0CFF01EC0D1
:100BF200D0F01FC0D1F00001CE51300FCFEC0DF07C
:100C0200640E176E000E186E000E196E000E1A6E2C
:100C120029C013F02AC014F02BC015F02CC016F016
:100C220011EC10F013C01CF014C01DF015C01EF022
:100C320016C01FF00A0E206E000E216E000E226EEC
:100C4200000E236EA3EC0EF01CC0D2F01DC0D3F038
:100C52001EC0D4F01FC0D5F00001D251300FCFEC2E
:100C62000DF029C013F02AC014F02BC015F02CC0CF
:100C720016F00A0E176E000E186E000E196E000E98
:100C82001A6E11EC10F013C0D6F014C0D7F015C0D4
:100C9200D8F016C0D9F00001D651300FCFEC0DF0CC
:100CA2001200000E386E010E376E38BE08D0385072
:100CB20005E1030E375CD8B07BD101D079D1A20E09
:100CC2000001BD6F000E0001BE6FD8903734D96E9F
:100CD2003834DA6ED890D936DA360001BD51D926C9
:100CE2000001BE51DA22DECFBFF0DECFC0F0DECF90
:100CF200C1F0DECFC2F037C0C3F038C0C4F000018B
:100D0200D890C337C4370001D890C337C437040E14
:100D12000001C327000EC423A20E0001C325D96E11
:100D2200000E0001C421DA6EDECFC5F0DECFC6F0C0
:100D3200DECFC7F0DECFC8F00001C51FC61FC71F38
:100D4200C81FC52B000EC623C723C8230001BF51ED
:100D52000001C5250001C96F0001C0510001C62173
:100D62000001CA6F0001C1510001C7210001CB6F10
:100D72000001C2510001C8210001CC6F410E0001E7
:100D8200CD6F000E0001CE6FD8903734D96E383453
:100D9200DA6ED890D936DA360001CD51D926000163
:100DA200CE51DA22C9C0DEFFCAC0DEFFCBC0DEFFF1
:100DB200CCC0DEFF410E0001BD6F000E0001BE6F10
:100DC200D8903734D96E3834DA6ED890D936DA36CC
:100DD2000001BD51D9260001BE51DA22DECF13F047
:100DE200DECF14F0DECF15F0DECF16F0400E176E18
:100DF200420E186E0F0E196E000E1A6E9DEC10F058
:100E0200410E0001BF6F000E0001C06FD890373451
:100E1200D96E3834DA6ED890D936DA360001BF513D
:100E2200D9260001C051DA2213C0DEFF14C0DEFF52
:100E320015C0DEFF16C0DEFF37C0BDF038C0BEF001
:100E42000001D890BD37BE370001D890BD37BE37FC
:100E5200080E0001BD27000EBE238E0E0001BD2527
:100E6200D96E000E0001BE21DA6EDECF1BF0DECF9E
:100E72001CF0DECF1DF0DECF1EF044EC10F01BC0E4
:100E820027F01CC028F01DC029F0410E0001BF6FE1
:100E9200000E0001C06FD8903734D96E3834DA6E44
:100EA200D890D936DA360001BF51D9260001C05197
:100EB200DA22DECF1BF0DECF1CF0DECF1DF0DECF5C
:100EC2001EF044EC10F01BC024F01CC025F01DC025
:100ED20026F03EEC0CF024C033F025C034F026C0DE
:100EE20035F02DEC0BF0410E0001C16F000E000138
:100EF200C26FD8903734D96E3834DA6ED890D9367A
:100F0200DA360001C151D9260001C251DA2233C0BA
:100F1200DEFF34C0DEFF35C0DEFF36C0DEFF410E2D
:100F22000001BD6F000E0001BE6FD8903734D96E3C
:100F32003834DA6ED890D936DA360001BD51D92666
:100F42000001BE51DA22DECF13F0DECF14F0DECF85
:100F520015F0DECF16F0640E176E000E186E000E3E
:100F6200196E000E1A6E9DEC10F0410E0001BF6F5B
:100F7200000E0001C06FD8903734D96E3834DA6E63
:100F8200D890D936DA360001BF51D9260001C051B6
:100F9200DA2213C0DEFF14C0DEFF15C0DEFF16C06A
:100FA200DEFF374A382A38BE8AD6385001E181D668
:100FB200000E386E010E376E38BE06D038503BE157
:100FC200030E375CD8B037D0410E0001BD6F000E62
:100FD2000001BE6FD8903734D96E3834DA6ED890AB
:100FE200D936DA360001BD51D9260001BE51DA22C6
:100FF200DECFBFF0DECFC0F0DECFC1F0DECFC2F079
:1010020000016C510001BF2500016C6F00016D51A0
:101012000001C02100016D6F00016E510001C1216C
:1010220000016E6F00016F510001C22100016F6F5C
:10103200374A382AC1D76CC0BDF06DC0BEF06EC051
:10104200BFF06FC0C0F00001D890C033BF33BE33D1
:10105200BD33BDC064F0BEC065F0BFC066F0C0C0A5
:1010620067F01200000E386E010E376E38BE08D0DF
:10107200385005E1040E375CD8B021D101D01FD120
:10108200030E37183810D8A47CD037C0BDF038C052
:10109200BEF00001D890BD37BE370001D890BD37F1
:1010A200BE37040E0001BD27000EBE238E0E0001C6
:1010B200BD25D96E000E0001BE21DA6EDECF1BF017
:1010C200DECF1CF0DECF1DF0DECF1EF044EC10F0C0
:1010D2001BC027F01CC028F01DC029F0EE0E246EA4
:1010E200900E256E4E0E266E3EEC0CF024C033F0B0
:1010F20025C034F026C035F02DEC0BF0A20E000115
:10110200BF6F000E0001C06FD8903734D96E3834EB
:10111200DA6ED890D936DA360001BF51D9260001ED
:10112200C051DA2233C0DEFF34C0DEFF35C0DEFF3D
:1011320036C0DEFFA20E0001BD6F000E0001BE6FC1
:10114200D8903734D96E3834DA6ED890D936DA3648
:101152000001BD51D9260001BE51DA22DECF13F0C3
:10116200DECF14F0DECF15F0DECF16F0C80E176E0C
:10117200000E186E000E196E000E1A6E9DEC10F025
:101182007BD037C0BDF038C0BEF00001D890BD376B
:10119200BE370001D890BD37BE37040E0001BD270F
:1011A200000EBE238E0E0001BD25D96E000E000179
:1011B200BE21DA6EDECF1BF0DECF1CF0DECF1DF0DB
:1011C200DECF1EF044EC10F01BC027F01CC028F04C
:1011D2001DC029F0EE0E246E900E256E4E0E266E68
:1011E2003EEC0CF024C033F025C034F026C035F0BC
:1011F2002DEC0BF0A20E0001BF6F000E0001C06FBC
:10120200D8903734D96E3834DA6ED890D936DA3687
:101212000001BF51D9260001C051DA2233C0DEFFDE
:1012220034C0DEFF35C0DEFF36C0DEFFA20E000195
:10123200BD6F000E0001BE6FD8903734D96E3834BE
:10124200DA6ED890D936DA360001BD51D9260001BE
:10125200BE51DA22DECF13F0DECF14F0DECF15F06E
:10126200DECF16F0640E176E000E186E000E196EA9
:10127200000E1A6E9DEC10F0A20E0001BF6F000E60
:101282000001C06FD8903734D96E3834DA6ED890F6
:10129200D936DA360001BF51D9260001C051DA220F
:1012A20013C0DEFF14C0DEFF15C0DEFF16C0DEFF76
:1012B200374A382A38BEE4D6385001E1DBD6000E70
:1012C200386E010E376E38BE06D038503BE1040E40
:1012D200375CD8B037D0A20E0001BD6F000E0001FE
:1012E200BE6FD8903734D96E3834DA6ED890D9368A
:1012F200DA360001BD51D9260001BE51DA22DECF15
:10130200BFF0DECFC0F0DECFC1F0DECFC2F0000111
:1013120070510001BF250001706F00017151000181
:10132200C0210001716F000172510001C121000151
:10133200726F000173510001C2210001736F374ABD
:10134200382AC1D770C01CF071C01DF072C01EF0E7
:1013520073C01FF0030E206E000E216E000E226E6F
:10136200000E236EA3EC0EF01CC074F01DC075F0CD
:101372001EC076F01FC077F01200000E166E000E2F
:10138200156E16BE06D016501BE1060E155CD8B0BF
:1013920017D08E0E136E000E146ED8901534D96EBF
:1013A2001634DA6ED890D936DA361350D92614505C
:1013B200DA22DE6ADE6ADE6ADD6A154A162AE1D7B9
:1013C200000E166E000E156E16BE06D016501BE1EC
:1013D200050E155CD8B017D0A20E136E000E146E57
:1013E200D8901534D96E1634DA6ED890D936DA36EA
:1013F2001350D9261450DA22DE6ADE6ADE6ADD6A0A
:10140200154A162AE1D7000E166E000E156E16BE8C
:1014120006D016501BE1040E155CD8B017D0410E51
:10142200136E000E146ED8901534D96E1634DA6E1F
:10143200D890D936DA361350D9261450DA22DE6A19
:10144200DE6ADE6ADD6A154A162AE1D7000ED66E1A
:10145200000ED76E000E0001786F000E796F000E3D
:101462007A6F000E7B6F000E00018D6F000E8C6F85
:10147200000E00018B6F000E8A6F000E0001896F53
:10148200000E886F000E0001876F000E866F000E3F
:101492000001856F000E846F000E3B6E000E3C6EE5
:1014A200000E3D6E000E3E6E000E406E000E3F6E50
:1014B20060C07CF061C07DF062C07EF063C07FF0EE
:1014C200000E0001746F000E756F000E766F000E35
:1014D200776F000E0001646F000E656F000E666F7D
:1014E200000E676F000E0001686F000E696F000E3C
:1014F2006A6F000E6B6F000E0001706F000E716F4D
:10150200000E726F000E736F000E00016C6F000E02
:101512006D6F000E6E6F000E6F6F1200D650D7CF38
:10152200E2F00001E36BE46BE56BE4C0E5F0E3C0DD
:10153200E4F0E2C0E3F00001E26B0001E2253B6E61
:10154200000E0001E3213C6E000E0001E4213D6E1D
:10155200000E0001E5213E6E78C0E2F079C0E3F0B2
:101562007AC0E4F07BC0E5F0E3C0E5F0E2C0E4F06D
:101572000001E36BE26B3B500001E2253B6E3C5005
:101582000001E3213C6E3D500001E4213D6E3E50DE
:101592000001E5213E6E3BC0E2F03CC0E3F03DC0FD
:1015A200E4F03EC0E5F0020ED8900001E237E337E6
:1015B200E437E537E82EF8D7E2C03BF0E3C03CF071
:1015C200E4C03DF0E5C03EF08E0E0001E26F000E79
:1015D2000001E36FD8903F34D96E4034DA6ED89070
:1015E200D936DA360001E251D9260001E351DA2276
:1015F2003BC0DEFF3CC0DEFF3DC0DEFF3EC0DEFF83
:10160200040E3F184010D8A4120033EC08F052EC3C
:1016120006F0680E1D6E080E1E6EA3EC0FF074C06D
:1016220029F075C02AF076C02BF077C02CF039EC87
:1016320004F045EC11F0600E1D6E080E1E6EA3EC58
:101642000FF096C029F097C02AF098C02BF099C0ED
:101652002CF039EC04F0120035C0B2F00001B36B8B
:10166200B46B34340001B23701E3B3810001B251EB
:101672000001BC6F0001BC51D8A409D0000E336E2A
:10168200000E346E000E356E000E366E1200170E0E
:101692000001B26F33C0B3F034C0B4F035C0B5F05E
:1016A2000001B2290001B66F05D00001D890B53310
:1016B200B433B3330001B62FF8D70001B3510001A0
:1016C200B76F348EFF0E3316FF0E3416000E35162A
:1016D20033500001B86F34500001B96F355000012A
:1016E200BA6F0001BB6B8E0E0001BC5F0001BCAF84
:1016F20019D00001BC51800A8F0FD8B009D0000E5A
:10170200336E000E346E000E356E000E366E120011
:101712000001D890BB33BA33B933B8330001BC3FB0
:10172200F7D71AD0170E0001BC6511D0000E336E28
:10173200000E346E000E356E000E366E1200000181
:10174200D890B837B937BA37BB370001BC070001A8
:10175200BC510001D8A4F3D70001B7510001D8B49D
:1017620009D00001BB1FBA1FB91FB86D000EB92303
:10177200BA23BB23B8C033F0B9C034F0BAC035F0D5
:10178200BBC036F012001DC021F0226A236A1C344D
:10179200213601E322802150246E2450D8A407D0A0
:1017A200000E1B6E000E1C6E000E1D6E120020C07D
:1017B20021F0226A236A1F34213601E3228021505C
:1017C200296E2950D8A407D0000E1B6E000E1C6E85
:1017D200000E1D6E120029507B0F24261DC029F019
:1017E2002050291A800E29161C8E1F8EFF0E1E16DF
:1017F200FF0E1F16000E2016000E256E000E266E1E
:10180200000E276E070E286E1BA006D01E5025263E
:101812001F50262220502722D8901D321C321B3204
:10182200D8901E361F362036282EEED7090E286E87
:101832001BA006D01E5025261F50262220502722EC
:10184200D8901D321C321B32D890273226322532D4
:10185200282EEED725C013F026C014F027C015F0AD
:1018620024C016F029C017F023EC0DF013C01BF0B2
:1018720014C01CF015C01DF0120026C02AF02B6AFD
:101882002C6A25342A3601E32B802A50316E3150DE
:10189200D8A407D0000E246E000E256E000E266E10
:1018A200120029C02AF02B6A2C6A28342A3601E356
:1018B2002B802A50326E3250D8A407D0000E246EEC
:1018C200000E256E000E266E1200000E2E6E000E09
:1018D2002F6E000E306E3250890F315E26C032F00C
:1018E2002950321A800E3216258EFF0E2416FF0E54
:1018F2002516000E2616288EFF0E2716FF0E281616
:10190200000E2916180E2D6ED8902E362F36303630
:101912002750245C2850255829502658D8A007D093
:101922002750245E2850255A2950265A2E80D890B6
:101932002436253626362D2EE7D72EC013F02FC09B
:1019420014F030C015F031C016F032C017F023EC9D
:101952000DF013C024F014C025F015C026F01200BB
:1019620072EC10F0010E1D6E080E1E6EA3EC0FF04D
:1019720045EC11F03E0E1D6E080E1E6EA3EC0FF02C
:10198200000E376E000E386E400E396E61EC0EF0AE
:1019920072EC10F0230E1D6E080E1E6EA3EC0FF0FB
:1019A20045EC11F0550E1D6E080E1E6EA3EC0FF0E5
:1019B200000E376E000E386E400E396E61EC0EF07E
:1019C20072EC10F0310E1D6E080E1E6EA3EC0FF0BD
:1019D200000E376E800E386E3F0E396E61EC0EF0DF
:1019E200000E0001C26F000EC16F0001C2BF08D01D
:1019F2000001C25126E1060E0001C15DD8B01200FD
:101A02006E0E1D6E080E1E6EA3EC0FF0000E376EEA
:101A1200800E386E3E0E396E61EC0EF0020E000141
:101A2200C1190001C211D8A408D072EC10F0310E15
:101A32001D6E080E1E6EA3EC0FF00001C14BC22BEF
:101A4200D4D712001650D8B405D013501410151064
:101A5200D8A40CD0000E136E000E146E000E156E7C
:101A62001200162AD890153214321332000E1314B3
:101A7200186E000E1414196EFE0E15141A6E1850FC
:101A820019101A10D8B40CD0ECD7162A010E13264E
:101A9200000E1422000E1522D89015321432133281
:101AA200000E1314186E000E1414196EFF0E151486
:101AB2001A6E185019101A10D8B406D0E6D71606A6
:101AC200D89013361436153614BE03D0020E1660A3
:101AD200F6D716A0149ED89016321650151217502B
:101AE200D8A4158E13C013F014C014F015C015F04D
:101AF20012000600FACF01F0FBCF02F0E9CF03F0AB
:101B0200EACF04F0E1CF05F0E2CF06F0D9CF07F03B
:101B1200DACF08F0F3CF09F0F4CF0AF0F6CF0BF0EA
:101B2200F7CF0CF0F8CF0DF0F5CF0EF04DC00FF05F
:101B32004EC010F04FC011F050C012F0F2A408D005
:101B4200010E00017827000E79237A237B23F29479
:101B520012C050F011C04FF010C04EF00FC04DF047
:101B62000EC0F5FF0DC0F8FF0CC0F7FF0BC0F6FF6B
:101B72000AC0F4FF09C0F3FF08C0DAFF07C0D9FFAB
:101B820006C0E2FF05C0E1FF04C0EAFF03C0E9FFAF
:101B920002C0FBFF01C0FAFF4D9211001B6E8B8445
:101BA200000E1C6E070E1C6401D00FD01C50010DDC
:101BB200130EF324D96E000EF420DA6E1B50010BC3
:101BC200DF6ED8901B321C2AEDD7080EE82EFED706
:101BD20000F013B002D08D9401D08D8414B002D0E5
:101BE2008D9201D08D8215B002D08D9001D08D8062
:101BF20016B002D0899A01D0898A17B002D089988A
:101C020001D0898818B002D0899601D0898619B08E
:101C120002D0899401D089841AB002D0899201D06D
:101C22008982FA0E00D0E82EFDD757EC11F012008F
:101C32002CAE16D02AC030F02BC031F02CC032F0BE
:101C4200301E311E321E302A000E31223222000E88
:101C520030242A6E000E31202B6E800E32202C6E24
:101C62002FAE16D02DC030F02EC031F02FC032F082
:101C7200301E311E321E302A000E31223222000E58
:101C820030242D6E000E31202E6E800E32202F6EEB
:101C9200000E2A1A000E2B1A800E2C1A000E2D1A74
:101CA200000E2E1A800E2F1A2D502A5C2E502B5801
:101CB2002F502C58D8B002D0D8901200D8801200E1
:101CC20037C033F038C034F039C035F02DEC0BF0AA
:101CD20033C0BDF034C0BEF0000E0001C06F000E74
:101CE200BF6F0BD0210E3A6E760EE82EFED73A2E3B
:101CF200FCD700D00001BF4BC02BBFC01BF0C0C03F
:101D02001CF0EBEC10F01BC02AF01CC02BF01DC025
:101D12002CF0000E1E6E200E1F6E410E206E37C07C
:101D22001BF038C01CF039C01DF0C4EC0BF01BC016
:101D32002DF01CC02EF01DC02FF019EC0EF0D8B003
:101D42001200D0D7000E246E000E256E000E266EF5
:101D5200000E276E2050211022102310D8B42AD052
:101D6200010E286E06D0D890203621362236233630
:101D7200282A23AEF8D7D890243625362636273699
:101D820020501C5C21501D5822501E5823501F58B1
:101D9200D8A009D020501C5E21501D5A22501E5A34
:101DA20023501F5A2480D8902332223221322032EB
:101DB200282EE1D724C01CF025C01DF026C01EF03D
:101DC20027C01FF01200000E136E010E146E010EDA
:101DD200156E010E166E000E176E000E186E000EB6
:101DE200196E000EDCEC0FF0000E136E000E146E76
:101DF200000E156E010E166E010E176E000E186E95
:101E0200000E196E000EDCEC0FF0000E136E000EC9
:101E1200146E000E156E000E166E010E176E010E78
:101E2200186E000E196E000EDCEC0FF0210E1B6E08
:101E3200760EE82EFED71B2EFCD700D0FA0E00D06D
:101E4200E82EFDD71200000E0001926F000E936F74
:101E5200000E946F000E956F3F4A402AD58E83AADA
:101E6200FED7D59E3F4A402A000E3A6E000E396ECA
:101E72008FEC0AF0000ED76E000ED66ED58E83A8B8
:101E8200FED7D59E3F4A402A000E3A6E000E396EAA
:101E92008FEC0AF0000ED76E000ED66ED58E82AE93
:101EA200FED7D59E3F4A402AA30E0001E66F550E8B
:101EB200E82EFED7E62FFCD7000E3A6E000E396EE2
:101EC2008FEC0AF0120072EC10F062EC11F007ECE9
:101ED20011F032EC11F01EEC11F0E4EC0EF072ECA9
:101EE20010F0BEEC09F0B1EC0CF072EC10F0BEECAC
:101EF20009F0130E1D6E080E1E6EA3EC0FF045ECDA
:101F020011F04A0E1D6E080E1E6EA3EC0FF0000EAD
:101F1200D76E000ED66E83ACFED772EC10F024ECB6
:101F22000FF00D0E0001E86FAF0E0001E76FB60E65
:101F3200E82EFED7E72FFCD7E82FFAD700F072EC95
:101F420010F0D5D7000E226E000E216E1AD021504D
:101F52001D241F6E22501E20206E1FC0F6FF20C0BF
:101F6200F7FFF86A070EF76403D00800F55005D0B2
:101F7200F6CFE1FFF7CFE2FFE750CFEC0DF0214AB9
:101F8200222A21501D241F6E22501E20206E1FC0A7
:101F9200F6FF20C0F7FFF86A070EF76403D00800C7
:101FA200F55005D0F6CFE1FFF7CFE2FFE750000989
:101FB200D8B41200CCD71A6E8B94080EE82EFED736
:101FC20000F01AB002D0899201D0898213B002D0F7
:101FD200899401D0898414B002D0899601D089866F
:101FE20015B002D0899801D0898816B002D0899A9A
:101FF20001D0898A17B002D08D9001D08D8018B09F
:1020020002D08D9201D08D8219B002D08D9401D070
:102012008D84FA0E00D0E82EFDD757EC11F0120095
:102022001750181019101A10D8B424D0010E1B6EB4
:1020320006D0D8901736183619361A361B2A1AAE19
:10204200F8D71750135C18501458195015581A50D5
:102052001658D8A008D01750135E1850145A1950A9
:10206200155A1A50165AD8901A3219321832173293
:102072001B2EE7D713C013F014C014F015C015F0CF
:1020820016C016F012008E0E236E06D0D8901E32A5
:102092001D321C321B32232A000E1B141F6E000E2F
:1020A2001C14206E000E1D14216EFF0E1E14226ED3
:1020B2001F50201021102210D8A4E8D71BC013F003
:1020C2001CC014F01DC015F023C016F0000E176ED0
:1020D20023EC0DF013C01BF014C01CF015C01DF052
:1020E2001200000E136E000E146E000E156E000E1E
:1020F200166E000E176E000E186E010E196E000E8F
:10210200DCEC0FF0000E136E000E146E000E156E56
:10211200000E166E000E176E000E186E000E196E6F
:10212200010EDCEC0FF08992899489968998899A3C
:102132008D908D928D941200000E1B6E000E1C6EFF
:10214200000E1D6E000E1E6E13A008D017501B2627
:1021520018501C2219501D221A501E22D8901736D0
:10216200183619361A36D8901632153214321332FE
:102172001350141015101610D8A4E6D71BC013F074
:102182001CC014F01DC015F01EC016F01200D00EB7
:10219200F66E220EF76E000EF86E00EEE9F010EE0B
:1021A20004F00900F5CFEEFFE550E150FAE100EE50
:1021B20060F0520EEE6AE806FDE100EE3BF0120E10
:1021C200EE6AE806FDE14D904D92000EF86E0001B8
:1021D20064EF0FF0000E1E6E1CAE06D01B6C1C1EB0
:1021E200D8B01C2A010E1E6E1BC013F01CC014F0C6
:1021F200156A8E0E166E1EC017F023EC0DF013C07A
:102202001BF014C01CF015C01DF0120094909492A3
:1022120094949292929492969298929A969096927E
:1022220096948B928B948B908992899489968998B3
:10223200899A8D908D928D941200D59ED59CD59AB7
:10224200D588D586D594D582D580000ED66E000E5F
:10225200D76EF28A9D909D92A092F1849F90A29255
:102262001200D08EF296F18EF28EF28CF298F096E7
:10227200F098F19CF19AF188F08CF08EF180000ECA
:102282009D6E000EA06E1200010E136E000E146EF3
:10229200000E156E000E166E000E176E000E186EF2
:1022A200000E196E010EDCEC0FF012008B80080E8E
:1022B200E82EFED700F08B90080EE82EFED700F035
:1022C2001200D398D39AD38CD384D3821200404283
:0222D2000F00FB
:020000040020DA
:08000000FFFFFFFFFFFFFFFF00
:020000040030CA
:0E0000000089191EFF0081FF0FC00FE00F40A6
:00000001FF
